{
  "contractName": "Game",
  "abi": [
    {
      "inputs": [],
      "name": "BET",
      "outputs": [
        {
          "internalType": "uint256",
          "name": "",
          "type": "uint256"
        }
      ],
      "stateMutability": "view",
      "type": "function"
    },
    {
      "inputs": [],
      "name": "player1",
      "outputs": [
        {
          "internalType": "address payable",
          "name": "",
          "type": "address"
        }
      ],
      "stateMutability": "view",
      "type": "function"
    },
    {
      "inputs": [],
      "name": "player2",
      "outputs": [
        {
          "internalType": "address payable",
          "name": "",
          "type": "address"
        }
      ],
      "stateMutability": "view",
      "type": "function"
    },
    {
      "inputs": [],
      "name": "register",
      "outputs": [
        {
          "internalType": "bool",
          "name": "",
          "type": "bool"
        }
      ],
      "stateMutability": "nonpayable",
      "type": "function"
    },
    {
      "inputs": [
        {
          "internalType": "bytes32",
          "name": "secretChoice",
          "type": "bytes32"
        }
      ],
      "name": "commit",
      "outputs": [
        {
          "internalType": "bool",
          "name": "",
          "type": "bool"
        }
      ],
      "stateMutability": "nonpayable",
      "type": "function"
    },
    {
      "inputs": [
        {
          "internalType": "enum Game.Choices",
          "name": "choice",
          "type": "uint8"
        },
        {
          "internalType": "string",
          "name": "secret",
          "type": "string"
        }
      ],
      "name": "reveal",
      "outputs": [
        {
          "internalType": "enum Game.Choices",
          "name": "",
          "type": "uint8"
        }
      ],
      "stateMutability": "nonpayable",
      "type": "function"
    },
    {
      "inputs": [],
      "name": "settle",
      "outputs": [
        {
          "internalType": "enum Game.Results",
          "name": "",
          "type": "uint8"
        }
      ],
      "stateMutability": "nonpayable",
      "type": "function"
    }
  ],
  "bytecode": "0x6080604052600a600055600060015534801561001a57600080fd5b50610dcb8061002a6000396000f3fe608060405234801561001057600080fd5b506004361061007d5760003560e01c8063b78d32cd1161005b578063b78d32cd146100ff578063ca3ed9e81461011d578063d30895e414610204578063f14fcbc8146102385761007d565b806311da60b4146100825780631aa3a008146100ab57806359a5f12d146100cb575b600080fd5b61008a61027c565b6040518082600381111561009a57fe5b815260200191505060405180910390f35b6100b361065e565b60405180821515815260200191505060405180910390f35b6100d361085f565b604051808273ffffffffffffffffffffffffffffffffffffffff16815260200191505060405180910390f35b610107610885565b6040518082815260200191505060405180910390f35b6101e36004803603604081101561013357600080fd5b81019080803560ff1690602001909291908035906020019064010000000081111561015d57600080fd5b82018360208201111561016f57600080fd5b8035906020019184600183028401116401000000008311171561019157600080fd5b91908080601f016020809104026020016040519081016040528093929190818152602001838380828437600081840152601f19601f82011690508083019250505050505050919291929050505061088b565b604051808260038111156101f357fe5b815260200191505060405180910390f35b61020c610bc3565b604051808273ffffffffffffffffffffffffffffffffffffffff16815260200191505060405180910390f35b6102646004803603602081101561024e57600080fd5b8101908080359060200190929190505050610be9565b60405180821515815260200191505060405180910390f35b600080600381111561028a57fe5b600660009054906101000a900460ff1660038111156102a557fe5b141580156102d95750600060038111156102bb57fe5b600660019054906101000a900460ff1660038111156102d657fe5b14155b806102f857506000600154141580156102f757506102586001540142115b5b61030157600080fd5b600660019054906101000a900460ff16600381111561031c57fe5b600660009054906101000a900460ff16600381111561033757fe5b141561043a57600260009054906101000a900473ffffffffffffffffffffffffffffffffffffffff1673ffffffffffffffffffffffffffffffffffffffff166108fc6103e86103b6600054028161038a57fe5b049081150290604051600060405180830381858888f193505050501580156103b6573d6000803e3d6000fd5b50600360009054906101000a900473ffffffffffffffffffffffffffffffffffffffff1673ffffffffffffffffffffffffffffffffffffffff166108fc6103e86103b6600054028161040457fe5b049081150290604051600060405180830381858888f19350505050158015610430573d6000803e3d6000fd5b506001905061065b565b6001600381111561044757fe5b600660009054906101000a900460ff16600381111561046257fe5b148015610493575060038081111561047657fe5b600660019054906101000a900460ff16600381111561049157fe5b145b806104f45750600260038111156104a657fe5b600660009054906101000a900460ff1660038111156104c157fe5b1480156104f35750600160038111156104d657fe5b600660019054906101000a900460ff1660038111156104f157fe5b145b5b80610554575060038081111561050657fe5b600660009054906101000a900460ff16600381111561052157fe5b14801561055357506002600381111561053657fe5b600660019054906101000a900460ff16600381111561055157fe5b145b5b156105dc57600260009054906101000a900473ffffffffffffffffffffffffffffffffffffffff1673ffffffffffffffffffffffffffffffffffffffff166108fc6103e86103b660005402816105a657fe5b049081150290604051600060405180830381858888f193505050501580156105d2573d6000803e3d6000fd5b506002905061065b565b600360009054906101000a900473ffffffffffffffffffffffffffffffffffffffff1673ffffffffffffffffffffffffffffffffffffffff166108fc6103e86103b6600054028161062957fe5b049081150290604051600060405180830381858888f19350505050158015610655573d6000803e3d6000fd5b50600390505b90565b6000600260009054906101000a900473ffffffffffffffffffffffffffffffffffffffff1673ffffffffffffffffffffffffffffffffffffffff163373ffffffffffffffffffffffffffffffffffffffff161415801561070c5750600360009054906101000a900473ffffffffffffffffffffffffffffffffffffffff1673ffffffffffffffffffffffffffffffffffffffff163373ffffffffffffffffffffffffffffffffffffffff1614155b61071557600080fd5b600073ffffffffffffffffffffffffffffffffffffffff16600260009054906101000a900473ffffffffffffffffffffffffffffffffffffffff1673ffffffffffffffffffffffffffffffffffffffff1614156107b65733600260006101000a81548173ffffffffffffffffffffffffffffffffffffffff021916908373ffffffffffffffffffffffffffffffffffffffff1602179055506001905061085c565b600073ffffffffffffffffffffffffffffffffffffffff16600360009054906101000a900473ffffffffffffffffffffffffffffffffffffffff1673ffffffffffffffffffffffffffffffffffffffff1614156108575733600360006101000a81548173ffffffffffffffffffffffffffffffffffffffff021916908373ffffffffffffffffffffffffffffffffffffffff1602179055506001905061085c565b600090505b90565b600360009054906101000a900473ffffffffffffffffffffffffffffffffffffffff1681565b60005481565b6000600260009054906101000a900473ffffffffffffffffffffffffffffffffffffffff1673ffffffffffffffffffffffffffffffffffffffff163373ffffffffffffffffffffffffffffffffffffffff1614806109365750600360009054906101000a900473ffffffffffffffffffffffffffffffffffffffff1673ffffffffffffffffffffffffffffffffffffffff163373ffffffffffffffffffffffffffffffffffffffff16145b61093f57600080fd5b6000801b6004541415801561095957506000801b60055414155b61096257600080fd5b6000600284846040516020018083600381111561097b57fe5b60f81b815260010182805190602001908083835b602083106109b2578051825260208201915060208101905060208303925061098f565b6001836020036101000a038019825116818451168082178552505050505050905001925050506040516020818303038152906040526040518082805190602001908083835b60208310610a1a57805182526020820191506020810190506020830392506109f7565b6001836020036101000a038019825116818451168082178552505050505050905001915050602060405180830381855afa158015610a5c573d6000803e3d6000fd5b5050506040513d6020811015610a7157600080fd5b81019080805190602001909291905050509050600260009054906101000a900473ffffffffffffffffffffffffffffffffffffffff1673ffffffffffffffffffffffffffffffffffffffff163373ffffffffffffffffffffffffffffffffffffffff16148015610ae2575080600454145b15610b0f5783600660006101000a81548160ff02191690836003811115610b0557fe5b0217905550610ba5565b600360009054906101000a900473ffffffffffffffffffffffffffffffffffffffff1673ffffffffffffffffffffffffffffffffffffffff163373ffffffffffffffffffffffffffffffffffffffff16148015610b6d575080600554145b15610b9a5783600660016101000a81548160ff02191690836003811115610b9057fe5b0217905550610ba4565b6000915050610bbd565b5b60006001541415610bb857426001819055505b839150505b92915050565b600260009054906101000a900473ffffffffffffffffffffffffffffffffffffffff1681565b6000600260009054906101000a900473ffffffffffffffffffffffffffffffffffffffff1673ffffffffffffffffffffffffffffffffffffffff163373ffffffffffffffffffffffffffffffffffffffff161480610c945750600360009054906101000a900473ffffffffffffffffffffffffffffffffffffffff1673ffffffffffffffffffffffffffffffffffffffff163373ffffffffffffffffffffffffffffffffffffffff16145b610c9d57600080fd5b600260009054906101000a900473ffffffffffffffffffffffffffffffffffffffff1673ffffffffffffffffffffffffffffffffffffffff163373ffffffffffffffffffffffffffffffffffffffff16148015610cfe57506000801b600454145b15610d0f5781600481905550610d8b565b600360009054906101000a900473ffffffffffffffffffffffffffffffffffffffff1673ffffffffffffffffffffffffffffffffffffffff163373ffffffffffffffffffffffffffffffffffffffff16148015610d7057506000801b600554145b15610d815781600581905550610d8a565b60009050610d90565b5b600190505b91905056fea26469706673582212206544b8d286572f3fcb7717afd288fe2f8621fc41fc78be47783ab9bd3edefb9a64736f6c63430007060033",
  "immutableReferences": {},
  "source": "// SPDX-License-Identifier: MIT\r\n\r\npragma solidity ^0.7.6;\r\n\r\ncontract Game {\r\n\r\n\t// bet per round\r\n\tuint public BET = 10;\r\n    \r\n    // possible choices for a player\r\n    enum Choices { none, rock, paper, scissors }\r\n    // possible results of the game\r\n    enum Results { none, draw, player1, player2 }\r\n\r\n\t// timestamp from first reveal\r\n\tuint private revealTime = 0;\r\n\r\n    // player addresses\r\n    address payable public player1;\r\n    address payable public player2;\r\n\r\n    // player secrets choices\r\n    bytes32 private player1SecretChoice;\r\n    bytes32 private player2SecretChoice;\r\n    \r\n    // player choices\r\n    Choices private player1Choice;\r\n    Choices private player2Choice;\r\n\r\n    //////////////////////////////////////////////////////////////////////////////////\r\n    \r\n    modifier isRegistered() {\r\n        require (msg.sender == player1 || msg.sender == player2);\r\n        _;\r\n    }\r\n    modifier isNotRegistered() {\r\n        require (msg.sender != player1 && msg.sender != player2);\r\n        _;\r\n    }\r\n    modifier commitFinished() {\r\n        require(player1SecretChoice != 0x0 && player2SecretChoice != 0x0);\r\n        _;\r\n    }\r\n    modifier revealFinished() {\r\n        require(\r\n        \t(player1Choice != Choices.none && player2Choice != Choices.none) ||\r\n        \t(revealTime != 0 && block.timestamp > revealTime + 10 minutes)\r\n        );\r\n        _;\r\n    }\r\n    \r\n    //////////////////////////////////////////////////////////////////////////////////\r\n    \r\n    // register a new player, returns true on success\r\n    function register() public isNotRegistered returns(bool) {\r\n        if (player1 == address(0x0)) {\r\n            player1 = msg.sender;\r\n            //initialBet = msg.value;\r\n            return true;\r\n        } else if (player2 == address(0x0)) {\r\n            player2 = msg.sender;\r\n            return true;\r\n        }\r\n        return false;\r\n    }\r\n\r\n    // play the game by commiting a secret choice, returns true on success\r\n    function commit(bytes32 secretChoice) public isRegistered returns(bool) {\r\n         if (msg.sender == player1 && player1SecretChoice == 0x0) {\r\n            player1SecretChoice = secretChoice;\r\n        } else if (msg.sender == player2 && player2SecretChoice == 0x0) {\r\n            player2SecretChoice = secretChoice;\r\n        } else {\r\n            return false;\r\n        }\r\n        return true;\r\n    }\r\n    \r\n    function reveal(Choices choice, string memory secret) public isRegistered commitFinished returns (Choices) {\r\n        bytes32 calculatedChoice = sha256(abi.encodePacked(choice, secret));\r\n\r\n        // If hashes match, clear move is saved\r\n        if (msg.sender == player1 && player1SecretChoice == calculatedChoice) {\r\n            player1Choice = choice;\r\n        } else if (msg.sender == player2 && player2SecretChoice == calculatedChoice) {\r\n            player2Choice = choice;\r\n        } else {\r\n            return Choices.none;\r\n        }\r\n        \r\n        // save timestamp after first reveal\r\n        if (revealTime == 0) {\r\n            revealTime = block.timestamp;\r\n        }\r\n        return choice;\r\n    }\r\n\r\n    // TODO: time based payout\r\n\r\n    function settle() public revealFinished returns(Results) {\r\n    \tif (player1Choice == player2Choice) {\r\n            player1.transfer(BET * 950 / 1000); // CALL NUTZEN !!\r\n            player2.transfer(BET * 950 / 1000);\r\n            return Results.draw;\r\n        } else if ((player1Choice == Choices.rock && player2Choice == Choices.scissors) ||\r\n        \t\t\t//(player1Choice != Choices.None && player2Choice == Choices.None) ||\r\n                   (player1Choice == Choices.paper && player2Choice == Choices.rock) ||\r\n                   (player1Choice == Choices.scissors && player2Choice == Choices.paper)) {\r\n            player1.transfer(BET * 950 / 1000);\r\n            return Results.player1;\r\n        } else {\r\n            player2.transfer(BET * 950 / 1000);\r\n            return Results.player2;\r\n        }\r\n    }\r\n}",
  "sourcePath": "/mnt/c/Users/Lucas/Studium/SS2021/Blockchain 3/stp/stp-contracts/contracts/Game.sol",
  "compiler": {
    "name": "solc",
    "version": "0.7.6+commit.7338295f.Emscripten.clang"
  },
  "schemaVersion": "3.4.0",
  "updatedAt": "2021-05-14T13:09:21.758Z",
  "devdoc": {
    "kind": "dev",
    "methods": {},
    "version": 1
  },
  "userdoc": {
    "kind": "user",
    "methods": {},
    "version": 1
  }
}